:060000000A128A11FC2F18
:100C8600442E831203130716482E831203130712EA
:100C96000800F20071080A128A1180260A128A11C7
:100CA600831203138711720888000A128A114326D9
:100CB6000800F20071080A128A1180260A128A11A7
:100CC600831203138715720888000A128A114326B5
:100CD6000800F6007408F5007508F10076080A1297
:100CE6008A114C260A128A117408F5007508F1005B
:100CF60073080A128A114C260800F0007008013A9F
:100D0600031D8A2E83120313871607130800700823
:100D1600023A031D932E8312031387120717080046
:100D26008312031387160717080083160313880117
:100D3600871107128712071387138312031387116C
:100D4600071688018712071387170830FC00FC0B6B
:100D5600AA2E8312031387130330FC007C08F100CC
:100D66003F300A128A114C260A128A110330FC00FF
:100D76007C08F100C0300A128A114C260A128A1128
:100D86000A128A1101270800FA01FB01F901B8309D
:100D9600F7007708F900FA0108307A02031808000C
:100DA6004030F7007708F3000330F8007808F400C5
:100DB60079080A128A116C260A128A110130F70084
:100DC6007708F907FB0140307B020318FC2E03303D
:100DD600F7007708F100FF300A128A115C260A1222
:100DE6008A110130F7007708FB0740307B02031CAD
:100DF600EA2E0130F7007708FA07CF2EFA01FB0139
:100E0600F901B830F7007708F900FA0108307A02DC
:100E1600031808004030F7007708F3000330F800A5
:100E26007808F40079080A128A116C260A128A11C7
:100E36000130F7007708F907FB0140307B02031801
:100E4600362F0330F7007708F10000300A128A11B6
:100E56005C260A128A110130F7007708FB0740303A
:100E66007B02031C242F0130F7007708FA07092FAD
:100E76000A128A1198260A128A110A128A11C7269C
:100E86000A128A110D3083120313A200AF30A1009B
:100E9600C130A000A00B4D2FA10B4D2FA20B4D2F43
:100EA60000000A128A1101270A128A110D308312D4
:100EB6000313A200AF30A100C130A000A00B612F28
:100EC600A10B612FA20B612F00001230F7008830B2
:100ED600F8000A128A1181270A128A110D3083122C
:100EE6000313A200AF30A100C130A000A00B792FE0
:100EF600A10B792FA20B792F0000402FFB01FD01DA
:100F0600FC01B830F9007908FC00FB0108307B02CF
:100F1600031808004030F9007908F300F401F40AD8
:100F26007C080A128A116C260A128A11FD014030C9
:100F36007D020318BE2FF101F10A7808831203130C
:100F4600FF00770884000A128A1500200A128A1107
:100F56000A128A115C260A128A110130F707031851
:100F6600F80A0030F8070130F9007908FD0740302B
:100F76007D02031C9E2F4030F9007908F3000230F1
:100F8600FA007A08F4007C080A128A116C260A1202
:100F96008A110130F9007908FC07FD0140307D0215
:100FA6000318F72F0230F9007908F1007808831248
:100FB6000313FF00770884000A128A1500200A121C
:100FC6008A110A128A115C260A128A110130F70761
:100FD6000318F80A0030F8070130F9007908FD0710
:100FE60040307D02031CD52F0130F9007908FB073C
:100FF600892F83010A128A113B2FFF1B0A288313AC
:101006007F1883170008840A0319FF0A08007F085F
:101016007F398A000408840A0319FF0A8200FF3414
:10102600FF34FF34073407340734073407340734F2
:1010360007340734073407340734073407340734D2
:1010460007340734073407340734073407340734C2
:1010560007340734073407340734073407340734B2
:1010660007340734073407340734073407340734A2
:101076000734073407340734073407340734073492
:101086000734073407348734873487340734073402
:101096000734073407340734073407340734073472
:1010A6000734073407340734073407340734073462
:1010B6000734073407340734073407340734073452
:1010C6000734073407340734073407340734073442
:1010D6000734073407340734073407340734073432
:1010E6000734073407340734073407340734073422
:1010F6000734073407340734073407340734073412
:101106000734073407340734073407340734073401
:101116000734073407340734FF34FF34FF34FF3411
:10112600FF34FF340034003400340034003400341B
:101136000034003400340034003400340034003409
:1011460000340034003400340034003400340034F9
:10115600FE34FE34FE348034C034F034F034F034DF
:10116600F034C0348034FE34FE34FE3400340034AF
:10117600F834F834F8343834F834F834F834F834C9
:10118600F83400340034FF34FF34FF3400340034C4
:10119600F834F834F83438343834383438343034B1
:1011A60020340034F834F834F83438343834F83429
:1011B600F834F83400340034F834F834F834383479
:1011C600F834F834F8343834F834F834F834003471
:1011D6000034F834F834F8343834F834F834F83461
:1011E600F834F83400340034003400340034003469
:1011F60000347C347C347C347C347C3400340034DD
:1012060000340034003400347C347C347C347C3448
:101216007C34003400340034FF34FF34FF34FF34B0
:10122600FF34FF340034003400340034003400341A
:101236000034003400340034003400340034003408
:1012460000340034003400340034003400340034F8
:101256000F341F341F341F340F340334003400346A
:1012660003340F341F341F341F340F34003400345A
:101276001F341F341F341C341C341D341D341D34DC
:101286000C34043400341F341F341F34003400344B
:101296001F341F341F341C341C341C341C340C34CF
:1012A600043400341F341F341F341C341C341F34E0
:1012B6001F341F34003400341F341F341F340034ED
:1012C6001F341F341F3400341F341F341F340034BE
:1012D60000341F341F341F341C341C341D341D3499
:1012E6001D340C340434003400340034003400342B
:1012F60020344034803480340034003400341E34CA
:101306003E341E340034003400340034003480345B
:101316004034603400340034FF34FF34FF34FF348B
:10132600FF34FF3400340034003400340034003419
:101336000034003400340034003400340034003407
:1013460000340034003400340034003400340034F7
:1013560000340034003400340034003400340034E7
:1013660000340034003400340034003400340034D7
:1013760000340034003400340034003400340034C7
:1013860000340034003400340034003400340034B7
:1013960000340034003400340034003400340034A7
:1013A6000034003400340034003400340034003497
:1013B6000034003400340034003400340034003487
:1013C6000034003400340034003400340034003477
:1013D6000034003400340034003400340034003467
:1013E6000034003400340034003400340034003457
:1013F600003400340034013401340234FE34F43451
:1014060074347C34FC344C34FE34013401340134FD
:101416000034003400340034FF34FF34FF34FF342A
:10142600FF34FF3400340034003400340034003418
:1014360008340834F834F834F834083408340034FE
:101446001034F834F834F8340034003400340034FE
:1014560000340034003400340034003400340034E6
:1014660000340034003400340034003400340034D6
:1014760000340034003400340834FC34FC34FC34CA
:1014860000340034003400340034003400340034B6
:10149600183418341834003400340034003400345E
:1014A6000034003400340034003400340034003496
:1014B6000034003400340034003408340834F8347E
:1014C600F834F83408340834003400340034003476
:1014D6000034003400340034003400340034003466
:1014E6000034003400341034F834F834F83400345E
:1014F6000034003400340034003400340134033442
:101506000334033403340234013400340034003429
:101516000034003400340034FF34FF34FF34FF3429
:10152600FF34FF3400340034003400340034003417
:1015360080348034FF34FF34FF3480348034003408
:101546000034FF34FF347F34C3348134C334FF3472
:101556007E343C3400348234FF34FF34FF34833429
:101566000334033400346234F334F1349134D9341F
:101576007F34FF34FE3480348034FF34FF34FF344C
:10158600833401348134FF34FF34FE3480348234B2
:10159600FF34FF34FF34803400348234FF34FF34A8
:1015A600FF3483348134FF34FF34FE348334813492
:1015B600FF34FF34FE348034003480348034FF340A
:1015C600FF34FF34C034803480348034C034E03497
:1015D600F03430346234F334F1349134D9347F3416
:1015E600FF34FE3480340034FF34FF347F34C33498
:1015F6008134C334FF347E343C3400340034CE347A
:10160600CF349934FB34F33470340034003400346E
:101616000034003400340034FF34FF34FF34FF3428
:10162600FF34FF3400340034003400340034003416
:101636000034003400340034003400340034003404
:1016460000340034003400340034003400340034F4
:1016560000340034003400340034003400340034E4
:1016660000340034003400340034003400340034D4
:1016760000340034003400340034003400340034C4
:1016860000340034003400340034003400340034B4
:1016960000340034003400340034003400340034A4
:1016A6000034003400340034003400340034003494
:1016B6000034003400340034003400340034003484
:1016C6000034003400340034003400340034003474
:1016D6000034003400340034003400340034003464
:1016E6000034003400340034003400340034003454
:1016F6000034003400340034003400340034003444
:101706000034003400340034003400340034003433
:101716000034003400340034FF34FF34FF34FF3427
:10172600FF34FF34E034E034E034E034E034E034D5
:10173600E034E034E034E034E034E034E034E03403
:10174600E034E034E034E034E034E034E034E034F3
:10175600E034E034E034E034E034E034E034E034E3
:10176600E034E034E034E034E034E034E034E034D3
:10177600E034E034E034E034E034E034E034E034C3
:10178600E034E034E034E034E034E034E034E034B3
:10179600E034E034E034E034E034E034E034E034A3
:1017A600E034E034E034E034E034E034E034E03493
:1017B600E034E034E034E034E034E034E034E03483
:1017C600E034E034E034E034E034E034E034E03473
:1017D600E034E034E034E034E034E034E034E03463
:1017E600E034E034E034E034E034E034E034E03453
:1017F600E034E034E034E034E034E034E034E03443
:10180600E034E034E034E034E034E034E034E03432
:0E181600E034E034E034E034FF34FF34FF34DB
:02400E007AFD39
:00000001FF
